{
  "_format": "hh-sol-artifact-1",
  "contractName": "MediChain",
  "sourceName": "contracts/MediChain.sol",
  "abi": [
    {
      "anonymous": false,
      "inputs": [
        {
          "indexed": true,
          "internalType": "address",
          "name": "patient",
          "type": "address"
        },
        {
          "indexed": true,
          "internalType": "address",
          "name": "grantee",
          "type": "address"
        }
      ],
      "name": "AccessGranted",
      "type": "event"
    },
    {
      "anonymous": false,
      "inputs": [
        {
          "indexed": true,
          "internalType": "address",
          "name": "patient",
          "type": "address"
        },
        {
          "indexed": true,
          "internalType": "address",
          "name": "grantee",
          "type": "address"
        }
      ],
      "name": "AccessRevoked",
      "type": "event"
    },
    {
      "anonymous": false,
      "inputs": [
        {
          "indexed": true,
          "internalType": "address",
          "name": "patient",
          "type": "address"
        },
        {
          "indexed": false,
          "internalType": "string",
          "name": "ipfsHash",
          "type": "string"
        },
        {
          "indexed": false,
          "internalType": "uint256",
          "name": "timestamp",
          "type": "uint256"
        }
      ],
      "name": "RecordAdded",
      "type": "event"
    },
    {
      "inputs": [
        {
          "internalType": "string",
          "name": "_ipfsHash",
          "type": "string"
        }
      ],
      "name": "addRecord",
      "outputs": [],
      "stateMutability": "nonpayable",
      "type": "function"
    },
    {
      "inputs": [
        {
          "internalType": "address",
          "name": "_patient",
          "type": "address"
        },
        {
          "internalType": "address",
          "name": "_grantee",
          "type": "address"
        }
      ],
      "name": "canAccess",
      "outputs": [
        {
          "internalType": "bool",
          "name": "",
          "type": "bool"
        }
      ],
      "stateMutability": "view",
      "type": "function"
    },
    {
      "inputs": [
        {
          "internalType": "address",
          "name": "_patient",
          "type": "address"
        }
      ],
      "name": "getRecords",
      "outputs": [
        {
          "components": [
            {
              "internalType": "address",
              "name": "owner",
              "type": "address"
            },
            {
              "internalType": "string",
              "name": "ipfsHash",
              "type": "string"
            },
            {
              "internalType": "uint256",
              "name": "timestamp",
              "type": "uint256"
            }
          ],
          "internalType": "struct MediChain.Record[]",
          "name": "",
          "type": "tuple[]"
        }
      ],
      "stateMutability": "view",
      "type": "function"
    },
    {
      "inputs": [
        {
          "internalType": "address",
          "name": "_grantee",
          "type": "address"
        }
      ],
      "name": "grantAccess",
      "outputs": [],
      "stateMutability": "nonpayable",
      "type": "function"
    },
    {
      "inputs": [
        {
          "internalType": "address",
          "name": "_grantee",
          "type": "address"
        }
      ],
      "name": "revokeAccess",
      "outputs": [],
      "stateMutability": "nonpayable",
      "type": "function"
    }
  ],
  "bytecode": "0x608060405234801561001057600080fd5b5061102e806100206000396000f3fe608060405234801561001057600080fd5b50600436106100575760003560e01c80630ae5e7391461005c57806385e6853114610078578063a0076e8414610094578063d6aa63c6146100c4578063d81aa8c4146100f4575b600080fd5b61007660048036038101906100719190610818565b610110565b005b610092600480360381019061008d9190610818565b610201565b005b6100ae60048036038101906100a99190610818565b6102f3565b6040516100bb9190610a0f565b60405180910390f35b6100de60048036038101906100d99190610a31565b610581565b6040516100eb9190610a8c565b60405180910390f35b61010e60048036038101906101099190610bdc565b610652565b005b60018060003373ffffffffffffffffffffffffffffffffffffffff1673ffffffffffffffffffffffffffffffffffffffff16815260200190815260200160002060008373ffffffffffffffffffffffffffffffffffffffff1673ffffffffffffffffffffffffffffffffffffffff16815260200190815260200160002060006101000a81548160ff0219169083151502179055508073ffffffffffffffffffffffffffffffffffffffff163373ffffffffffffffffffffffffffffffffffffffff167f9f520b3bfc56d06f7065d10b4683b3f57ac8895d5026cd176dee95ce1454cb8d60405160405180910390a350565b6000600160003373ffffffffffffffffffffffffffffffffffffffff1673ffffffffffffffffffffffffffffffffffffffff16815260200190815260200160002060008373ffffffffffffffffffffffffffffffffffffffff1673ffffffffffffffffffffffffffffffffffffffff16815260200190815260200160002060006101000a81548160ff0219169083151502179055508073ffffffffffffffffffffffffffffffffffffffff163373ffffffffffffffffffffffffffffffffffffffff167f825c8be24eb0df19500f63e86c29e7d0d951e73056b889b891d85e40938d9b6e60405160405180910390a350565b60608173ffffffffffffffffffffffffffffffffffffffff163373ffffffffffffffffffffffffffffffffffffffff1614806103b55750600160008373ffffffffffffffffffffffffffffffffffffffff1673ffffffffffffffffffffffffffffffffffffffff16815260200190815260200160002060003373ffffffffffffffffffffffffffffffffffffffff1673ffffffffffffffffffffffffffffffffffffffff16815260200190815260200160002060009054906101000a900460ff165b6103f4576040517f08c379a00000000000000000000000000000000000000000000000000000000081526004016103eb90610c82565b60405180910390fd5b6000808373ffffffffffffffffffffffffffffffffffffffff1673ffffffffffffffffffffffffffffffffffffffff168152602001908152602001600020805480602002602001604051908101604052809291908181526020016000905b8282101561057657838290600052602060002090600302016040518060600160405290816000820160009054906101000a900473ffffffffffffffffffffffffffffffffffffffff1673ffffffffffffffffffffffffffffffffffffffff1673ffffffffffffffffffffffffffffffffffffffff1681526020016001820180546104db90610cd1565b80601f016020809104026020016040519081016040528092919081815260200182805461050790610cd1565b80156105545780601f1061052957610100808354040283529160200191610554565b820191906000526020600020905b81548152906001019060200180831161053757829003601f168201915b5050505050815260200160028201548152505081526020019060010190610452565b505050509050919050565b60008173ffffffffffffffffffffffffffffffffffffffff168373ffffffffffffffffffffffffffffffffffffffff16036105bf576001905061064c565b600160008473ffffffffffffffffffffffffffffffffffffffff1673ffffffffffffffffffffffffffffffffffffffff16815260200190815260200160002060008373ffffffffffffffffffffffffffffffffffffffff1673ffffffffffffffffffffffffffffffffffffffff16815260200190815260200160002060009054906101000a900460ff1690505b92915050565b6000803373ffffffffffffffffffffffffffffffffffffffff1673ffffffffffffffffffffffffffffffffffffffff16815260200190815260200160002060405180606001604052803373ffffffffffffffffffffffffffffffffffffffff16815260200183815260200142815250908060018154018082558091505060019003906000526020600020906003020160009091909190915060008201518160000160006101000a81548173ffffffffffffffffffffffffffffffffffffffff021916908373ffffffffffffffffffffffffffffffffffffffff16021790555060208201518160010190816107469190610eae565b506040820151816002015550503373ffffffffffffffffffffffffffffffffffffffff167f4b92a41aaac1d087148ec39a65a261cc6ac88ed7765dece5374bb3893fcfcf9e824260405161079b929190610fc8565b60405180910390a250565b6000604051905090565b600080fd5b600080fd5b600073ffffffffffffffffffffffffffffffffffffffff82169050919050565b60006107e5826107ba565b9050919050565b6107f5816107da565b811461080057600080fd5b50565b600081359050610812816107ec565b92915050565b60006020828403121561082e5761082d6107b0565b5b600061083c84828501610803565b91505092915050565b600081519050919050565b600082825260208201905092915050565b6000819050602082019050919050565b61087a816107da565b82525050565b600081519050919050565b600082825260208201905092915050565b60005b838110156108ba57808201518184015260208101905061089f565b60008484015250505050565b6000601f19601f8301169050919050565b60006108e282610880565b6108ec818561088b565b93506108fc81856020860161089c565b610905816108c6565b840191505092915050565b6000819050919050565b61092381610910565b82525050565b60006060830160008301516109416000860182610871565b506020830151848203602086015261095982826108d7565b915050604083015161096e604086018261091a565b508091505092915050565b60006109858383610929565b905092915050565b6000602082019050919050565b60006109a582610845565b6109af8185610850565b9350836020820285016109c185610861565b8060005b858110156109fd57848403895281516109de8582610979565b94506109e98361098d565b925060208a019950506001810190506109c5565b50829750879550505050505092915050565b60006020820190508181036000830152610a29818461099a565b905092915050565b60008060408385031215610a4857610a476107b0565b5b6000610a5685828601610803565b9250506020610a6785828601610803565b9150509250929050565b60008115159050919050565b610a8681610a71565b82525050565b6000602082019050610aa16000830184610a7d565b92915050565b600080fd5b600080fd5b7f4e487b7100000000000000000000000000000000000000000000000000000000600052604160045260246000fd5b610ae9826108c6565b810181811067ffffffffffffffff82111715610b0857610b07610ab1565b5b80604052505050565b6000610b1b6107a6565b9050610b278282610ae0565b919050565b600067ffffffffffffffff821115610b4757610b46610ab1565b5b610b50826108c6565b9050602081019050919050565b82818337600083830152505050565b6000610b7f610b7a84610b2c565b610b11565b905082815260208101848484011115610b9b57610b9a610aac565b5b610ba6848285610b5d565b509392505050565b600082601f830112610bc357610bc2610aa7565b5b8135610bd3848260208601610b6c565b91505092915050565b600060208284031215610bf257610bf16107b0565b5b600082013567ffffffffffffffff811115610c1057610c0f6107b5565b5b610c1c84828501610bae565b91505092915050565b600082825260208201905092915050565b7f4163636573732064656e69656400000000000000000000000000000000000000600082015250565b6000610c6c600d83610c25565b9150610c7782610c36565b602082019050919050565b60006020820190508181036000830152610c9b81610c5f565b9050919050565b7f4e487b7100000000000000000000000000000000000000000000000000000000600052602260045260246000fd5b60006002820490506001821680610ce957607f821691505b602082108103610cfc57610cfb610ca2565b5b50919050565b60008190508160005260206000209050919050565b60006020601f8301049050919050565b600082821b905092915050565b600060088302610d647fffffffffffffffffffffffffffffffffffffffffffffffffffffffffffffffff82610d27565b610d6e8683610d27565b95508019841693508086168417925050509392505050565b6000819050919050565b6000610dab610da6610da184610910565b610d86565b610910565b9050919050565b6000819050919050565b610dc583610d90565b610dd9610dd182610db2565b848454610d34565b825550505050565b600090565b610dee610de1565b610df9818484610dbc565b505050565b5b81811015610e1d57610e12600082610de6565b600181019050610dff565b5050565b601f821115610e6257610e3381610d02565b610e3c84610d17565b81016020851015610e4b578190505b610e5f610e5785610d17565b830182610dfe565b50505b505050565b600082821c905092915050565b6000610e8560001984600802610e67565b1980831691505092915050565b6000610e9e8383610e74565b9150826002028217905092915050565b610eb782610880565b67ffffffffffffffff811115610ed057610ecf610ab1565b5b610eda8254610cd1565b610ee5828285610e21565b600060209050601f831160018114610f185760008415610f06578287015190505b610f108582610e92565b865550610f78565b601f198416610f2686610d02565b60005b82811015610f4e57848901518255600182019150602085019450602081019050610f29565b86831015610f6b5784890151610f67601f891682610e74565b8355505b6001600288020188555050505b505050505050565b6000610f8b82610880565b610f958185610c25565b9350610fa581856020860161089c565b610fae816108c6565b840191505092915050565b610fc281610910565b82525050565b60006040820190508181036000830152610fe28185610f80565b9050610ff16020830184610fb9565b939250505056fea264697066735822122001c24b3008e88a3f8b349b875390b6ab0fa4ea8f8722ec38a4d31e9c8810495d64736f6c63430008140033",
  "linkReferences": {},
  "deployedLinkReferences": {}
}